{
  "contractName": "Document",
  "abi": [
    {
      "inputs": [],
      "payable": false,
      "stateMutability": "nonpayable",
      "type": "constructor"
    },
    {
      "constant": true,
      "inputs": [],
      "name": "getContractBalance",
      "outputs": [
        {
          "internalType": "uint256",
          "name": "",
          "type": "uint256"
        }
      ],
      "payable": false,
      "stateMutability": "view",
      "type": "function"
    },
    {
      "constant": false,
      "inputs": [
        {
          "internalType": "uint256",
          "name": "setWei",
          "type": "uint256"
        }
      ],
      "name": "setPayablewei",
      "outputs": [],
      "payable": false,
      "stateMutability": "nonpayable",
      "type": "function"
    },
    {
      "constant": false,
      "inputs": [],
      "name": "killContract",
      "outputs": [],
      "payable": false,
      "stateMutability": "nonpayable",
      "type": "function"
    },
    {
      "constant": true,
      "inputs": [],
      "name": "getOwnerBalance",
      "outputs": [
        {
          "internalType": "uint256",
          "name": "",
          "type": "uint256"
        }
      ],
      "payable": false,
      "stateMutability": "view",
      "type": "function"
    },
    {
      "constant": false,
      "inputs": [
        {
          "internalType": "uint256",
          "name": "value",
          "type": "uint256"
        }
      ],
      "name": "transferBalanceFromContract",
      "outputs": [
        {
          "internalType": "bool",
          "name": "success",
          "type": "bool"
        }
      ],
      "payable": false,
      "stateMutability": "nonpayable",
      "type": "function"
    },
    {
      "constant": false,
      "inputs": [
        {
          "internalType": "string",
          "name": "author",
          "type": "string"
        },
        {
          "internalType": "uint256",
          "name": "hashValue",
          "type": "uint256"
        }
      ],
      "name": "registerDocument",
      "outputs": [],
      "payable": true,
      "stateMutability": "payable",
      "type": "function"
    },
    {
      "constant": true,
      "inputs": [
        {
          "internalType": "uint256",
          "name": "hashValue",
          "type": "uint256"
        }
      ],
      "name": "getDocByHashValue",
      "outputs": [
        {
          "internalType": "string",
          "name": "",
          "type": "string"
        },
        {
          "internalType": "uint256",
          "name": "",
          "type": "uint256"
        },
        {
          "internalType": "uint256",
          "name": "",
          "type": "uint256"
        },
        {
          "internalType": "uint256",
          "name": "",
          "type": "uint256"
        }
      ],
      "payable": false,
      "stateMutability": "view",
      "type": "function"
    }
  ],
  "bytecode": "0x608060405234801561001057600080fd5b50336000806101000a81548173ffffffffffffffffffffffffffffffffffffffff021916908373ffffffffffffffffffffffffffffffffffffffff16021790555061099e806100606000396000f3fe60806040526004361061008d576000357c010000000000000000000000000000000000000000000000000000000090048063590791f21161006b578063590791f2146101c15780636f9fb98a146101ec57806389bd5d3e146102175780639e68ce6a146102e05761008d565b806309f4577c146100925780631c02708d146100e557806330888400146100fc575b600080fd5b34801561009e57600080fd5b506100cb600480360360208110156100b557600080fd5b810190808035906020019092919050505061031b565b604051808215151515815260200191505060405180910390f35b3480156100f157600080fd5b506100fa61037b565b005b6101bf6004803603604081101561011257600080fd5b810190808035906020019064010000000081111561012f57600080fd5b82018360208201111561014157600080fd5b8035906020019184600183028401116401000000008311171561016357600080fd5b91908080601f016020809104026020016040519081016040528093929190818152602001838380828437600081840152601f19601f8201169050808301925050505050505091929192908035906020019092919050505061040e565b005b3480156101cd57600080fd5b506101d6610530565b6040518082815260200191505060405180910390f35b3480156101f857600080fd5b506102016105c9565b6040518082815260200191505060405180910390f35b34801561022357600080fd5b506102506004803603602081101561023a57600080fd5b8101908080359060200190929190505050610641565b6040518080602001858152602001848152602001838152602001828103825286818151815260200191508051906020019080838360005b838110156102a2578082015181840152602081019050610287565b50505050905090810190601f1680156102cf5780820380516001836020036101000a031916815260200191505b509550505050505060405180910390f35b3480156102ec57600080fd5b506103196004803603602081101561030357600080fd5b81019080803590602001909291905050506107b3565b005b60008060009054906101000a900473ffffffffffffffffffffffffffffffffffffffff1673ffffffffffffffffffffffffffffffffffffffff163373ffffffffffffffffffffffffffffffffffffffff161461037657600080fd5b919050565b6000809054906101000a900473ffffffffffffffffffffffffffffffffffffffff1673ffffffffffffffffffffffffffffffffffffffff163373ffffffffffffffffffffffffffffffffffffffff16146103d457600080fd5b6000809054906101000a900473ffffffffffffffffffffffffffffffffffffffff1673ffffffffffffffffffffffffffffffffffffffff16ff5b60015434101561041d57600080fd5b6000151561042a82610816565b151514610482576040517f08c379a000000000000000000000000000000000000000000000000000000000815260040180806020018281038252602581526020018061091e6025913960400191505060405180910390fd5b61048a610850565b6040518060800160405280848152602001428152602001438152602001838152509050806002600084815260200190815260200160002060008201518160000190805190602001906104dd929190610878565b5060208201518160010155604082015181600201556060820151816003015590505060016003600084815260200190815260200160002060006101000a81548160ff021916908315150217905550505050565b60008060009054906101000a900473ffffffffffffffffffffffffffffffffffffffff1673ffffffffffffffffffffffffffffffffffffffff163373ffffffffffffffffffffffffffffffffffffffff161461058b57600080fd5b6000809054906101000a900473ffffffffffffffffffffffffffffffffffffffff1673ffffffffffffffffffffffffffffffffffffffff1631905090565b60008060009054906101000a900473ffffffffffffffffffffffffffffffffffffffff1673ffffffffffffffffffffffffffffffffffffffff163373ffffffffffffffffffffffffffffffffffffffff161461062457600080fd5b3073ffffffffffffffffffffffffffffffffffffffff1631905090565b606060008060006001151561065586610816565b1515146106ad576040517f08c379a00000000000000000000000000000000000000000000000000000000081526004018080602001828103825260278152602001806109436027913960400191505060405180910390fd5b60026000868152602001908152602001600020600001600260008781526020019081526020016000206001015460026000888152602001908152602001600020600201546002600089815260200190815260200160002060030154838054600181600116156101000203166002900480601f01602080910402602001604051908101604052809291908181526020018280546001816001161561010002031660029004801561079d5780601f106107725761010080835404028352916020019161079d565b820191906000526020600020905b81548152906001019060200180831161078057829003601f168201915b5050505050935093509350935093509193509193565b6000809054906101000a900473ffffffffffffffffffffffffffffffffffffffff1673ffffffffffffffffffffffffffffffffffffffff163373ffffffffffffffffffffffffffffffffffffffff161461080c57600080fd5b8060018190555050565b60006003600083815260200190815260200160002060009054906101000a900460ff16610846576000905061084b565b600190505b919050565b6040518060800160405280606081526020016000815260200160008152602001600081525090565b828054600181600116156101000203166002900490600052602060002090601f016020900481019282601f106108b957805160ff19168380011785556108e7565b828001600101855582156108e7579182015b828111156108e65782518255916020019190600101906108cb565b5b5090506108f491906108f8565b5090565b61091a91905b808211156109165760008160009055506001016108fe565b5090565b9056fe446f636861736820616c72656164792070726573656e7420696e20626c6f636b636861696e4861736856616c7565206973206e6f742061737369676e656420696e20626c6f636b636861696ea265627a7a72315820ee3c2592703a8792bb18d9b310dcefa7d00b0c9d9dd9a998198cd279c2c590f564736f6c634300050b0032",
  "source": "pragma solidity ^0.5.11;\r\ncontract Document {\r\n  address payable owner;\r\n  uint minWei;\r\n  struct Data {\r\n    string author;\r\n    uint mineTime;\r\n    uint blockNumber;\r\n    uint docHash;\r\n  }\r\n\r\n  mapping (uint => Data) private docHashs;\r\n  mapping (uint => bool) private exists;\r\n  constructor() public  {\r\n    owner = msg.sender;\r\n  }\r\n\r\n  modifier onlyOwner() {\r\n    require(msg.sender == owner);\r\n    _;\r\n  }\r\n  modifier acceptMinWei() {\r\n    require(msg.value >= minWei);\r\n    _;\r\n\r\n  }\r\n\r\n  function getContractBalance() public view onlyOwner returns (uint) {\r\n    return address(this).balance;\r\n  }\r\n\r\n  function setPayablewei(uint setWei) public onlyOwner{\r\n    minWei = setWei;\r\n  }\r\n\r\n  function killContract() public onlyOwner {\r\n    selfdestruct(owner);\r\n  }\r\n\r\n  function getOwnerBalance() public view onlyOwner returns (uint) {\r\n    return owner.balance;\r\n  }\r\n\r\n  function isDocHashRegister (uint hashValue) internal view returns (bool) {\r\n    if (!exists[hashValue]){\r\n      return false;\r\n    }\r\n    return true;\r\n  }\r\n\r\n  function transferBalanceFromContract(uint value) public onlyOwner returns(bool success ) {\r\n    \r\n  }\r\n  function registerDocument(string memory author, uint hashValue) public payable acceptMinWei{\r\n    require(isDocHashRegister(hashValue) == false, 'Dochash already present in blockchain');\r\n    Data memory dataTmp = Data(author, now, block.number, hashValue);\r\n    docHashs[hashValue] = dataTmp;\r\n    exists[hashValue] = true;\r\n  }\r\n\r\n  function getDocByHashValue(uint hashValue) public view returns(string memory, uint, uint, uint) {\r\n    require(isDocHashRegister(hashValue) == true, 'HashValue is not assigned in blockchain');\r\n    return (docHashs[hashValue].author, docHashs[hashValue].mineTime, docHashs[hashValue].blockNumber, docHashs[hashValue].docHash);\r\n  }\r\n\r\n}\r\n",
  "sourcePath": "C:/Users/akumars7/Downloads/blockchain/contract/contracts/Document.sol",
  "compiler": {
    "name": "solc",
    "version": "0.5.11+commit.c082d0b4.Emscripten.clang"
  },
  "schemaVersion": "3.0.16",
  "updatedAt": "2019-09-15T03:34:06.161Z",
  "devdoc": {
    "methods": {}
  },
  "userdoc": {
    "methods": {}
  }
}